:020000040800F2
:1000000090140020E1010008891200088512000800
:100010008712000871020008751500080000000032
:10002000000000000000000000000000490100087E
:1000300073020008000000008D01000895120008FE
:10004000FB010008FB010008FB010008FB010008A0
:10005000FB010008FB010008FB010008FB01000890
:10006000FB010008FB010008FB010008FB01000880
:10007000FB010008FB010008FB010008FB01000870
:10008000FB010008FB010008FB010008FB01000860
:10009000FB010008FB010008FB010008FB01000850
:1000A000FB010008FB010008FB010008FB01000840
:1000B000FB010008FB010008FB010008FB01000830
:1000C000FB010008FB010008FB010008FB01000820
:1000D000FB010008FB01000869150008FB0100088E
:1000E000FB010008FB010008FB010008FB01000800
:1000F000FB010008FB010008FB010008FB010008F0
:10010000FB010008FB010008FB010008FB010008DF
:10011000FB010008FB01000821130008FB01000897
:10012000FB010008FB010008FB010008FB010008BF
:10013000DFF810D000F08AF800480047B515000835
:10014000AFF3008090140020224B19680868B0E8D3
:10015000F00F80F30988BFF36F8F4FF0000080F33A
:1001600011884EF00D0E7047000000000648006830
:10017000006880F3088862B661B6BFF34F8FBFF3A3
:100180006F8F00DF00BF00BF08ED00E0EFF30980D4
:10019000BFF36F8F0F4B1A6820E9F00F106008B59E
:1001A0004FF0500080F31188BFF34F8FBFF36F8F74
:1001B00001F0D8FD4FF0000080F31188BDE8084041
:1001C00019680868B0E8F00F80F30988BFF36F8FF3
:1001D000704700BF14000020EFF305807047000057
:1001E0000648804706480047FEE7FEE7FEE7FEE7D1
:1001F000FEE7FEE7FEE7FEE7FEE7FEE71F13000867
:100200003101000840EA01039B0703D009E008C957
:10021000121F08C0042AFAD203E011F8013B00F8CB
:10022000013B521EF9D27047D2B201E000F8012B17
:10023000491EFBD270470022F6E710B513460A4666
:1002400004461946FFF7F0FF204610BD064C074D47
:1002500006E0E06840F0010394E807009847103496
:10026000AC42F6D3FFF768FFE42000080421000841
:10027000FEE7704710B590F821100022022905D042
:100280000421816380F82020012010BD01680B68E3
:1002900023F00E030B6001680B6823F001030B6071
:1002A00090F84030C46B012101FA03F3636080F8D9
:1002B000211080F82020104610BD00002DE9F05FCD
:1002C00090F821100024022903D004218163012425
:1002D00085E001680A6822F00E020A6001680A6877
:1002E00022F001020A603F4E3E4FB215DFF8F4C023
:1002F000DFF8F090DFF8ECA0DFF8E8B0DFF8E4E03A
:100300000168783F13011502ACF1640CA9F15009A2
:10031000AAF13C0AABF1280BAEF1140E4FF4801891
:10032000B14227D9B9420ED0614512D049451DD0FE
:10033000514518D0594518D0714501D1424615E0B4
:10034000294EB14201D1012210E0274E1436B142AC
:1003500001D110220AE0244E2836B14206D0224AAA
:100360003C32914201D11A4600E02A461E49091F3B
:100370000A602BE0B94213D0614517D0494522D01D
:1003800051451DD059451DD0714501D142461AE055
:10039000B14202D14FF0807215E0134EB14201D14B
:1003A000012210E0104E1436B14201D110220AE0B1
:1003B0000D4E2836B14206D00B4A3C32914201D153
:1003C0001A4600E02A46074980394A60012180F830
:1003D0002110002180F82010416B01B18847204690
:1003E000BDE8F09F80000240080402402DE9F84F6C
:1003F000DFF8C891002409F1040A0AF1040B23462E
:100400000F270BF1040ED1E00125A54006EA0502F5
:10041000AA4276D1DFF8A8C14E68A6EB0C08664563
:100420002BD00DDC032E34D005DC36B3012E19D0D1
:10043000022E2FD11BE0112E16D0122E2AD119E038
:10044000B8F5881F19D006DCB8F5803F15D0B8F58F
:10045000801F1FD111E0B8F5001F0ED0B8F5041FA2
:1004600018D10AE0CB6815E0CB681B1D12E0CB6801
:1004700008330FE0CB680C330CE08B682BB1012BF9
:100480004FF0080303D0456104E0042302E0056156
:1004900000E00023FF2A01D8064601E000F104062F
:1004A0004FEA840501D9A5F12005D6F8008007FAA6
:1004B00005FC28EA0C0803FA05F548EA0508C6F821
:1004C00000804D68ED0070D53E4DAE6946F00106E6
:1004D000AE61AD6924F0030605F0010500953A4DC3
:1004E00006EB050CDCF80850A607360F07FA06F8ED
:1004F00025EA0805DFF8D480404503D14FF0000815
:1005000025E052E0DFF8C880404502D14FF00108F5
:100510001DE0DFF8C080404502D14FF0020816E030
:10052000DFF8B480404502D14FF003080FE0DFF858
:10053000AC80404502D14FF0040808E0DFF8A0800D
:10054000404502D14FF0050801E04FF0060808FAD7
:1005500006F848EA0508CCF808804D68D9F800602C
:10056000ED034D4601D5164300E096432E604D68DD
:10057000DAF80060AD03554601D5164300E0964316
:100580002E604D68DBF80060ED025D4601D5164334
:1005900000E096432E604D68DEF80060AD027546BF
:1005A00001D5164300E096432E60641C0A68164687
:1005B000E2407FF429AFBDE8F88F0000000401405D
:1005C000000011100010024000000140000801402E
:1005D000000C0140001001400014014000180140CF
:1005E000001C0140014880687047000004000020A2
:1005F000024881680278114481607047040000203D
:10060000074810B5016841F010010160032000F0B7
:1006100095F8002000F006F800F03EF8002010BD2C
:100620000020024000B5014687B00022362000F0CD
:1006300065F8362000F054F81348C16941F0100104
:10064000C161C06905A900F010000690684600F07D
:100650001DF900F03BF90D494000B0FBF1F10D48E8
:100660000B4A491E0260416040F2E7320021C0E9B6
:100670000321816000F050FB10B1012007B000BDE4
:10068000044800F08BFBF9E70010024040420F00E5
:1006900000100040540300200F4808B5816941F064
:1006A00001018161816901F001010091C16941F09D
:1006B0008051C161C069002200F0805000900F217C
:1006C000901E00F01BF80548416821F0E06141F000
:1006D0008061416008BD0000001002400000014040
:1006E000002809DB00F01F02012191404009800031
:1006F00000F1E020C0F8001170470000F0B40E4B8C
:100700001B680C46C3F30223C3F10705042D00D96F
:100710000425191D072901D2002300E0DB1E012654
:1007200006FA05F1491E214099409E40761E16406A
:100730003143F0BC00F01FBF0CED00E0064900F0B3
:10074000070208684FF6FF03184040EA0220034AF8
:1007500010430860704700000CED00E00000FA054F
:100760002DE9F0470F46050061D0434E306800F098
:100770000700B84209D2306820F0070038433060E3
:10078000306800F00700B84251D128683B4C81071F
:1007900012D5400703D5606840F4E06060602878B7
:1007A000000703D5606840F4605060606068A96825
:1007B00020F0F000084360602878C00728D06868FF
:1007C000012810D02168022810D0890700292EDACC
:1007D000616821F0030101436160FFF703FF804678
:1007E00041F288390DE021688903EFE78901EDE7DF
:1007F000FFF7F8FEA0EB0801494502D90320BDE848
:10080000F0876068696800F00C00B0EB810FEFD1F1
:10081000306800F00700B8420BD9306820F00700BC
:1008200038433060306800F00700B84201D0012042
:10083000E5E72878400705D56068E96820F4E060BE
:10084000084360602878000706D56068296920F4AD
:10085000605040EAC100606000F058F86168084AE2
:10086000C1F30311515CC84006490860064800689E
:10087000FFF7D8FE0020C2E700200240001002402F
:10088000C020000810000020080000200F22026095
:100890000C4A536803F003034360536803F0F0030A
:1008A0008360536803F4E063C36052684FF4E0630D
:1008B00003EAD20202610448006800F00700086001
:1008C0007047000000100240002002400448054923
:1008D00000684968044AC1F30221515CC84070476E
:1008E0001000002000100240D020000804480549F4
:1008F00000684968044AC1F3C221515CC84070478E
:100900001000002000100240D020000812A185B085
:100910000FC98DE80F0014A0144A006804905168B4
:10092000134801F00C03042B10D0082B0ED1C1F397
:100930008343C9031DF803000AD5516804AAC1F313
:100940004041515C0A4A5043B0FBF1F005B070479A
:1009500008494843FAE700000203040506070809AE
:100960000A0B0C0D0E0F10100102000000100240C7
:1009700000127A0000093D002DE9F84F040070D004
:100980002078C04DC00749D06868C0F381000128B5
:1009900007D06868C0F38100022809D16868C003E5
:1009A00006D52868800339D560680028E7D035E08F
:1009B0006068B0F5803F0BD010B1B0F5A02F11D01A
:1009C000286820F480302860286820F4802002E025
:1009D000286840F480302860606890B1FFF702FE1C
:1009E00006460AE0286840F480202860F0E700BF4F
:1009F000FFF7F8FD801B642873D828688003F7D5BB
:100A00000CE0FFF7EFFD064605E000BFFFF7EAFD4B
:100A1000801B6428F0D828688003F7D420789A4E89
:100A200080074FF001094FF0000839D5686810F0D1
:100A30000C0F07D06868C0F38100022809D16868EC
:100A4000C00306D42868800714D52069012808D17E
:100A500010E02069B0B1C6F80090FFF7C3FD07466B
:100A600005E00AE1FFF7BEFDC01B0228C4D82868D4
:100A70008007F7D52868616920F0F80040EAC100D6
:100A800028600DE0C6F80080FFF7ACFD074604E0E3
:100A9000FFF7A8FDC01B022823D828688007F7D4D9
:100AA000207800072CD57948A169D9B1C0F8009009
:100AB000FFF798FD074604E0FFF794FDC01B0228EE
:100AC0000FD8686A8007F7D571484FF4FA5100686B
:100AD000B0FBF1F0009000BF0098411E0091FAD2E7
:100AE0000EE080E0C0F80080FFF77CFD074604E0E0
:100AF000FFF778FDC01B022875D8686A8007F7D415
:100B00002078400760D5E8690027C00008D4E8696C
:100B100040F08050E861E869012700F080500090C3
:100B20005C480168C90513D40168834641F48071AB
:100B30000160FFF757FD824606E000BFFFF752FD58
:100B4000A0EB0A0064284ED8DBF80000C005F5D5FC
:100B5000E06801280AD008B1052813D0286A20F0DF
:100B600001002862286A20F0040002E0286A40F0B0
:100B700001002862E06841F2883B98B1FFF732FD3E
:100B800082460BE0286A40F004002862EEE700BFCE
:100B9000FFF728FDA0EB0A0159455AD8286A8007BB
:100BA000F6D50CE0FFF71EFD824605E0FFF71AFDC3
:100BB000A0EB0A0159454CD8286A8007F6D41FB12A
:100BC000E86920F08050E861E06988B36968C1F3A2
:100BD0008101022944D00228C6F8608004D0FFF7C2
:100BE00001FD044638E034E0FFF7FCFC074604E072
:100BF000FFF7F8FCC01B02282BD828688001F7D427
:100C0000206AB0F5803F05D16868A16820F4003003
:100C100008436860D4E908010843696821F4741145
:100C200008436860C6F86090FFF7DCFC044606E005
:100C300025E000BFFFF7D6FC001B022809D8286872
:100C40008001F7D51BE000BFFFF7CCFC001B02289A
:100C500002D90320BDE8F88F28688001F4D40EE0A3
:100C60000128F7D06868226A00F48031914204D1EB
:100C7000616A00F47010884201D00120EAE7002088
:100C8000E8E70000001002400000424280044242B7
:100C900010000020007000407047704770B590F859
:100CA0003C20012A2CD0012480F83C40022280F80C
:100CB0003D2003685A689D6822F070060A68324336
:100CC0005A60104B02689A420ED00F4B9A420BD0DA
:100CD000B2F1804F08D00D4B9A4205D00C4B9A428E
:100CE00002D00C4B9A4204D1496825F08003194385
:100CF000916080F83D40002180F83C10084670BDAE
:100D0000022070BD002C014000340140000400406E
:100D100000080040000C004010B5040003D094F817
:100D20003D0010B107E0012010BD002084F83C0018
:100D3000204600F01FF8022084F83D00211D2068A5
:100D400000F0F4FA012084F8460084F83E0084F8AC
:100D50003F0084F8400084F8410084F8420084F8A1
:100D6000430084F8440084F8450084F83D000020E6
:100D700010BD000008B500680649884208D1064841
:100D8000C16941F02001C161C06900F020000090FC
:100D900008BD0000001400400010024090F83D1013
:100DA000012901D001207047022180F83D1001681F
:100DB000CA6842F00102CA6000680E4988420ED03B
:100DC0000D4988420BD0B0F1804F08D00B498842C2
:100DD00005D00B49884202D00A49884204D1816873
:100DE00001F00701062903D0016841F0010101600B
:100DF00000207047002C01400034014000040040F6
:100E000000080040000C0040704770B504460068C0
:100E100001694FF00005C943890715D4C168C9436A
:100E2000890711D4E91E01610120207720688069BB
:100E30008007204602D0FFF7E7FF04E000F098F8B3
:100E4000204600F096F8257720680169C9434907D4
:100E500017D4C168C943490713D46FF00401016175
:100E6000022020772068806910F4407F204602D05D
:100E7000FFF7CAFF04E000F07BF8204600F079F8A5
:100E8000257720680169C943090716D4C168C94399
:100E9000090712D46FF0080101610420207720684F
:100EA000C0698007204602D0FFF7AEFF04E000F0E3
:100EB0005FF8204600F05DF8257720680169C94396
:100EC000C90617D4C168C943C90613D46FF010010D
:100ED0000161082020772068C06910F4407F204617
:100EE00002D0FFF791FF04E000F042F8204600F046
:100EF00040F8257720680169C943C90708D1C1684E
:100F0000C943C90704D1891E0161204600F032F8A7
:100F100020680169C943090609D4C168C9430906A3
:100F200005D46FF0800101612046FFF7B5FE20680F
:100F30000169C943490609D4C168C943490605D4B2
:100F40006FF040010161204600F01EF82068016941
:100F5000C94389060BD4C168C943890607D46FF019
:100F6000200101612046BDE87040FFF796BE70BDCC
:100F70007047704700680349884201D1FFF738BBCA
:100F80007047000000100040704770477047000035
:100F9000F8B5026804461068D168536910F00F0F65
:100FA0004FF0000553D003F0010601F4907737436A
:100FB0005FD0C20705D0CA0503D5226C42F00102FA
:100FC0002264420705D5DA0703D0226C42F0020200
:100FD0002264820705D5DA0703D0226C42F00402AE
:100FE0002264020707D501F02002324303D0226CAD
:100FF00042F008022264226C002A34D0800604D514
:10100000880602D5204600F0F7F920684069216C77
:10101000C0F38010090700D430B3204600F0D4F9A3
:101020002068416949061BD5416921F040014161B1
:10103000A06BA8B158494163A06BFFF73FF90028A6
:1010400011D0A06B416B01B0BDE8F04008478306AA
:101050000FD58B060DD52046BDE8F84000F0CCB981
:101060002046FFF793FFF8BD2046FFF78FFF25646A
:10107000F8BD266B2023012E52D1C60650D5CE06D0
:101080004ED5106850680090506940062AD5A16B73
:10109000086840680004000CEAD0A68D8642E7D9B3
:1010A000E0858869202818D0D06820F48070D0604E
:1010B0002068416921F0010141612068416921F006
:1010C0004001416184F83E3025632068C16821F009
:1010D0001001C160A06BFFF7CDF8A08DE18D401A23
:1010E00081B219E0A08DE18D401A81B2E08D002817
:1010F000BED00029BCD0D06820F49070D0602068A9
:10110000426922F00102426184F83E302563206882
:10111000C26822F01002C2602046FFF736FFF8BD19
:1011200005062BD50D0629D594F83D002128F6D1CA
:10113000A068B0F5805F01D12069B0B1206A411C80
:101140002162216800784860E08C401E0004000C99
:10115000E084E4D12068C16821F08001C16020688A
:10116000C16841F04001C160F8BD206A0088C0F349
:1011700008005060206A801C2062E5E74006F3D535
:101180004806F1D5D168204621F04001D16084F8AD
:101190003D3000F076F8F8BDB913000870B50400D2
:1011A00004D094F83D00002510B106E0012070BD88
:1011B00084F83C50204600F023F8242084F83D00B9
:1011C0002068C16821F40051C160204600F070F928
:1011D0002068016921F4904101612068416921F092
:1011E0002A0141612068C16841F40051C160256451
:1011F000202084F83D0084F83E00002070BD0000EF
:1012000030B585B0002400940194029403940068E2
:10121000184988422BD11848C16941F40031C16195
:10122000C16901F400310491816941F004018161D7
:101230008069124D00F00400049004200090022008
:1012400001900320039069462846FFF7CFF8082055
:10125000CDE90004694628460294FFF7C7F800224A
:1012600005212620FFF74AFA2620FFF739FA05B0B4
:1012700030BD000000440040001002400008014062
:1012800070477047FEE7FEE7FEE7012000F0ECF94B
:10129000FBE7000010B5502080F31188BFF34F8F9B
:1012A000BFF36F8F00F038FE18B104494FF0805043
:1012B0000860002080F3118810BD000004ED00E0FC
:1012C00030B58FB028216846FEF7B5FF14210AA873
:1012D000FEF7B1FF01210804CDE9001000240294BB
:1012E00002250491CDE907504FF4E01009906846BB
:1012F000FFF742FB08B172B6FEE70F20CDE90A0501
:101300004FF48060CDE90C4002210AA80E94FFF74B
:1013100027FA002801D072B6FEE70FB030BD704743
:101320000148FFF772BD000054030020F0B50268C9
:101330001C4B1D4D1D4E1E4F1E4C4FF0804C9842B5
:1013400009D0A04207D0604505D0A84203D0B042E2
:1013500001D0B84204D122F0700E4A6842EA0E026F
:10136000984209D0A04207D0604505D0A84203D0DA
:10137000B04201D0B84203D122F44075CA682A4372
:101380004D6922F080022A4302608A68C2620A68BC
:101390008262984201D0A04201D109690163012112
:1013A0004161F0BD002C01400004004000080040F5
:1013B000000C00400034014010B5406A0021C18596
:1013C000C184FFF7E3FD10BD0168CA6822F4907282
:1013D000CA6001684A6922F001024A61016B012971
:1013E00004D10168CA6822F01002CA60202180F886
:1013F0003E1000210163704708B590F83E10222985
:1014000001D0022008BD82684FF480539A4201D176
:10141000016921B1816A9A421BD04AB10AE002688F
:10142000816A5268C2F308020A80816A891C08E056
:10143000026972B10268526802F07F020A70816A22
:10144000491C8162C18D491E0904090CC18503D064
:1014500019E002685268F1E70168CA6822F02002C8
:10146000CA600168CA6822F48072CA6001684A6969
:1014700022F001024A61202180F83E10016B01290F
:1014800003D0FFF7FDFE002008BD002101630168C5
:10149000CA6822F01002CA6001680A68D20602D542
:1014A0000A6849680091818DFFF76FFDEBE7000046
:1014B00070B5044600680169E26821F440511143A7
:1014C00001612169A0680843616908432168CA680D
:1014D00041F20C639A430243CA6020684169A269E1
:1014E00021F44071114341611E492068884202D1B4
:1014F000FFF7FCF901E0FFF7E9F900EBC00101EBB0
:101500000012606864218000B2FBF0F3B3FBF1F3DA
:101510006FF018067343B2FBF0F5B2FBF0F605EB83
:101520008305322303EB0515B5FBF1F5B6FBF1F6A8
:1015300005F0F00505EB0615B2FBF0F6B2FBF0F096
:10154000B0FBF1F06FF01802504306EB800003EBA4
:101550000010B0FBF1F0216800F00F002844886013
:1015600070BD0000003801400148FFF711BD0000C8
:10157000BC000020FEE70907090E002804DB00F18B
:10158000E02080F80014704700F00F0000F1E02028
:1015900080F8141D704702E008C8121F08C1002A15
:1015A000FAD170477047002001E001C1121F002AE4
:1015B000FBD170478AB0FFF723F8FFF781FE21487F
:1015C000816941F0040181618069002400F0040018
:1015D0001E4807941C490894C0E900144FF6FF7197
:1015E000C0E902418461FFF797FB08B172B6FEE7DC
:1015F000079407A915480894FFF750FB08B172B685
:10160000FEE712481249483001604FF49641C0E9A4
:1016100001140C21C460C0E904418461C461FFF776
:10162000BDFD08B172B6FEE71C220A496846FEF706
:10163000E9FD0021684600F023F80749086000F042
:101640001AF8FEE700100240001400407400002069
:1016500000440040A42000080000002001460020B3
:10166000842900D0C81C704710B500B9012000F0D3
:1016700015FB002010BD10B500F036FB002010BD9A
:101680007FB50D4604464169B0F9080081B1A169F2
:1016900071B1FFF7E3FFD4E905128DE80700D4E943
:1016A00000102B46226900F00CFC039004B070BDC2
:1016B000FFF7D4FF03A9CDE90001208A2B4682B2AF
:1016C000D4E9001000F0D0FB012801D00020EDE7A4
:1016D0000398EBE72DE9F041184C0F460546666983
:1016E0002068001D00F016FA38B9206890F82C1018
:1016F00001208840A1698143A161681C07D137B1ED
:101700002168BDE8F0410E48091D00F047BA206885
:101710003544B5424560216805D2A068BDE8F04176
:10172000091D00F023BA6068091D00F01FFA206B44
:10173000854200D22563BDE8F0810000140000203E
:10174000780400202DE9F041054600F033FA2E4CD4
:101750002069401C206120682C4F10B1E06940B323
:101760002DE025602069012829D1002606EB86009E
:1017700007EB800000F0ECF9761C072EF6D3234827
:101780008C3000F0E5F92148A03000F0E1F91F4865
:10179000B43000F0DDF91D48C83000F0D9F91B481D
:1017A000DC3000F0D5F919488C3060601430A0604E
:1017B00005E02068E96AC06A884200D82560E06ACE
:1017C000401CE062E96A0120A26988401043A061E0
:1017D00001EB810007EB8000291D00F0DFF900F02C
:1017E00009FAE06900280CD02068E96AC06A8842DA
:1017F00007D207494FF080500860BFF34F8FBFF307
:101800006F8FBDE8F0810000140000209C030020D1
:1018100004ED00E010B5044690F8510058B10128DD
:101820000CD002280FD0502080F31188BFF34F8FC7
:10183000BFF36F8FFEE7206B00F0F0F92046BDE8A4
:10184000104000F0EBB910BD10484FF44061420762
:1018500006D0C01D0D4920F00700411AC1F54061B6
:101860000B4A00230144C2E900030839103A21F071
:10187000070111604B600B600B1AC0E90013936005
:101880004FF000405360D060704700008C0400208F
:1018900060000020144E154CA6F1C8074FF0805888
:1018A000DFF84C9012E000BF00F084F9F068C568E2
:1018B000281D00F02FF92069401E2061E068401EBD
:1018C000E06000F097F92846FFF7A4FFE0680028E1
:1018D000EAD138680128F9D9C9F80080BFF34F8FE1
:1018E000BFF36F8FF2E700006404002014000020B3
:1018F00004ED00E02DE9F0479A46DDE909848146D0
:101900006FF00303206B03EB82021044089D20F06C
:101910000706700707D0502080F31188BFF34F8F60
:10192000BFF36F8FFEE723180A5C83F834200A5C4C
:1019300012B1401C1028F6D3002784F84370072DFD
:1019400000D30625E562C4E91157201D00F00BF90C
:1019500004F1180000F007F92461C5F10700646282
:10196000A061E76484F8507052464946304600F062
:10197000BFF82060B8F1000F01D0C8F80040BDE802
:10198000F087000030B5114900E011460A68824234
:10199000FBD34B685C18844203D14068184448600C
:1019A000084643681C18944209D1084C103C24682E
:1019B000A24209D052681A4442600A681268026062
:1019C000814200D0086030BD0460F9E7600000206B
:1019D00006484168096829B14168C968C968496809
:1019E000016370474FF0FF31FAE700001400002058
:1019F00008484068401C4FF0500080F3118804D024
:101A0000BFF34F8FBFF36F8FFEE7BFF34F8FBFF36F
:101A10006F8FFEE7680000202DE9F04105460027A2
:101A200000F098F9314E306808B9FFF70DFFF06803
:101A300005424BD1C5B3083568070ED005F0070045
:101A4000C0F108000544680707D0502080F31188D2
:101A5000BFF34F8FBFF36F8FFEE72DB370688542E2
:101A600034D82248103001460C6801E020460C466C
:101A70006168A94202D221680029F7D131688C42FD
:101A800024D007682168016060680837411B10296D
:101A90000FD96019420708D0502080F31188BFF396
:101AA0004F8FBFF36F8FFEE710E041606560FFF777
:101AB00069FF61687068401A7060B268904200D235
:101AC000B060F06801430020C4E9000100F088FA2A
:101AD000780707D0502080F31188BFF34F8FBFF3F2
:101AE0006F8FFEE73846BDE8F0810000500000200F
:101AF00010B5031F4FF080741C601B1F21F0010103
:101B00001960191F024B0B60143940380A6010BD70
:101B1000F1190008D0E9013201699A60D0E9012386
:101B20005A604A68824201D182684A60002202619A
:101B30000868401E0860086870470000034B036097
:101B400003F15400086080201060704700010020FD
:101B500000F108014FF0FF32C0E90112C1600161DC
:101B600000210160704700210161704730B50B68AA
:101B70005A1C02D000F1080202E0026904E0224689
:101B8000546825689D42FAD953684B6099608A6011
:101B9000516008610168491C016030BD42684A60BB
:101BA00093688B6093685960916008610168491C73
:101BB00001607047502080F31188BFF34F8FBFF34F
:101BC0006F8F0A494868401C486001280CD10848BA
:101BD000006810F0FF0F07D0502080F31188BFF38A
:101BE0004F8FBFF36F8FFEE7704700006800002043
:101BF00004ED00E00849486828B1401E486001D162
:101C000080F311887047502080F31188BFF34F8F05
:101C1000BFF36F8FFEE700006800002070B500285A
:101C200027D0144DA0F108046168E868014207D18B
:101C3000502080F31188BFF34F8FBFF36F8FFEE703
:101C400022683AB1502080F31188BFF34F8FBFF361
:101C50006F8FFEE78143616000F07CF8606869681F
:101C6000084468602046FFF78DFEBDE8704000F034
:101C7000B7B970BD500000204FF0E0200021016195
:101C8000816105494FF47A720968B1FBF2F1491E8E
:101C900041610721016170471000002010B502006A
:101CA00014D00F48806B38B1502080F31188BFF3F7
:101CB0004F8FBFF36F8FFEE700F04CF80021104606
:101CC000FFF708FD00F08CF9002807D105494FF017
:101CD00080500860BFF34F8FBFF36F8F10BD0000BF
:101CE0001400002004ED00E010B586B00024039439
:101CF00005AA04A903A80494FFF720FFDDE9030166
:101D00000094CDE9011000230EA11048059A00F0BF
:101D1000D8F80F490028486311D0502080F311886B
:101D2000BFF34F8FBFF36F8F4FF0FF300863012079
:101D3000C8614C6106B0BDE8104000F041B806B083
:101D400010BD000049444C450000000095180008F3
:101D5000140000200248816B491C81637047000019
:101D6000140000201448816B11B1012141627047B9
:101D7000002141628169B1FA81F1C1F11F0101EBDA
:101D800081020E4951F822306BB101EB820101F161
:101D900008034A6852684A609A4201D152684A6010
:101DA000D16801607047502080F31188BFF34F8FD6
:101DB000BFF36F8FFEE70000140000209C0300209B
:101DC0001CB5264908780190FF20087008788DF826
:101DD00000009DF800009DF8002000F0F000904207
:101DE00007D0502080F31188BFF34F8FBFF36F8F60
:101DF000FEE79DF800001A4B00F050001870072015
:101E0000986005E09DF8002052008DF80020401EEB
:101E10009DF800201206F5D49860032807D05020C2
:101E200080F31188BFF34F8FBFF36F8FFEE74FF43E
:101E300040709860019808700A48016841F4700188
:101E40000160016841F070410160FFF715FF00205B
:101E50005860FEF78BF900201CBD000000E400E094
:101E60006800002020ED00E02DE9FF5F8346DDE9FA
:101E70000E87994616468A469000FFF7CDFD05006D
:101E80001CD05420FFF7C8FD040014D000202563A7
:101E900084F85100CDE90240CDE900874B46324637
:101EA00051465846FFF726FD2046FFF74BFC012020
:101EB00004B0BDE8F09F2846FFF7B0FE4FF0FF30BA
:101EC000F6E7F0B585B0DDE90B640A9DA6B1DCB19B
:101ED000542700972663022684F85160002604AF39
:101EE000CDE90246CDE90057FFF704FD2046FFF794
:101EF00029FC049805B0F0BD502080F31188BFF391
:101F00004F8FBFF36F8FFEE7502080F31188BFF330
:101F10004F8FBFF36F8FFEE72DE9F0412E4C002766
:101F2000A06B40B1206A401C2062606A00B10127AA
:101F30003846BDE8F0816669761C666113D1606839
:101F4000006838B1502080F31188BFF34F8FBFF382
:101F50006F8FFEE76068A1686160A060A06A401CA6
:101F6000A062FFF735FD206BDFF87080864209D351
:101F70006068006880B16068C068C568686886424B
:101F80000DD220632068C06A00EB800158F8210060
:101F90000128CAD90127C8E74FF0FF30F1E7281D13
:101FA000FFF7B8FDA86A18B105F11800FFF7B2FDF8
:101FB000E86A0121A26981401143A16100EB80011F
:101FC00008EB8100291DFFF7E9FDE86A2168C96A6D
:101FD0008842CDD30127CBE7140000209C030020CA
:101FE0002DE9F0472C4D00242746A86B38B1FFF7A8
:101FF000E1FDA86B401EA863A86B40B146E05020ED
:1020000080F31188BFF34F8FBFF36F8FFEE729690D
:10201000224E0120D1B3A6F1B40980463068E8B160
:10202000F068C46804F11800FFF774FD201DFFF785
:1020300071FDE06AAA6908FA00F11143A96100EB99
:10204000800109EB8100211DFFF7A8FDE06A2968E6
:10205000C96A8842E2D3C5F82480DFE70CB1FFF7F4
:10206000B7FC2C6A44B14646FFF756FF00B16E62DA
:10207000641EF9D100202862686A38B10849012736
:1020800038070860BFF34F8FBFF36F8FFFF7B2FDC4
:102090003846BDE8F08700001400002050040020FE
:1020A00004ED00E0D82000088B12000800000000BA
:1020B00000000000800000000000000000000000A0
:1020C00000000000000000000102030406070809E8
:1020D000000000000102030464656661756C7454BD
:1020E00061736B00042100080000002074000000F0
:1020F0009615000878210008740000201C140000C8
:10210000A6150008000000000100000010000000FB
:10211000000000000024F4000000000000000000A7
:1021200000000000000000000000000000000000AF
:10213000000000000000000000000000000000009F
:10214000000000000000000000000000000000008F
:10215000000000000000000000000000000000007F
:10216000000000000000000000000000000000006F
:08217000AAAAAAAA00000000BF
:0400000508000131BD
:00000001FF
